{
  "contractName": "TokenERC20",
  "abi": [
    {
      "inputs": [],
      "payable": false,
      "stateMutability": "nonpayable",
      "type": "constructor"
    },
    {
      "anonymous": false,
      "inputs": [
        {
          "indexed": true,
          "internalType": "address",
          "name": "_owner",
          "type": "address"
        },
        {
          "indexed": true,
          "internalType": "address",
          "name": "_spender",
          "type": "address"
        },
        {
          "indexed": false,
          "internalType": "uint256",
          "name": "_value",
          "type": "uint256"
        }
      ],
      "name": "Approval",
      "type": "event"
    },
    {
      "anonymous": false,
      "inputs": [
        {
          "indexed": true,
          "internalType": "address",
          "name": "_from",
          "type": "address"
        },
        {
          "indexed": true,
          "internalType": "address",
          "name": "_to",
          "type": "address"
        },
        {
          "indexed": false,
          "internalType": "uint256",
          "name": "_value",
          "type": "uint256"
        }
      ],
      "name": "Transfer",
      "type": "event"
    },
    {
      "constant": true,
      "inputs": [
        {
          "internalType": "address",
          "name": "",
          "type": "address"
        }
      ],
      "name": "balances",
      "outputs": [
        {
          "internalType": "uint256",
          "name": "",
          "type": "uint256"
        }
      ],
      "payable": false,
      "stateMutability": "view",
      "type": "function"
    },
    {
      "constant": true,
      "inputs": [],
      "name": "token_decimals",
      "outputs": [
        {
          "internalType": "uint8",
          "name": "",
          "type": "uint8"
        }
      ],
      "payable": false,
      "stateMutability": "view",
      "type": "function"
    },
    {
      "constant": true,
      "inputs": [],
      "name": "token_name",
      "outputs": [
        {
          "internalType": "string",
          "name": "",
          "type": "string"
        }
      ],
      "payable": false,
      "stateMutability": "view",
      "type": "function"
    },
    {
      "constant": true,
      "inputs": [],
      "name": "token_symbol",
      "outputs": [
        {
          "internalType": "string",
          "name": "",
          "type": "string"
        }
      ],
      "payable": false,
      "stateMutability": "view",
      "type": "function"
    },
    {
      "constant": true,
      "inputs": [],
      "name": "name",
      "outputs": [
        {
          "internalType": "string",
          "name": "",
          "type": "string"
        }
      ],
      "payable": false,
      "stateMutability": "view",
      "type": "function"
    },
    {
      "constant": true,
      "inputs": [],
      "name": "symbol",
      "outputs": [
        {
          "internalType": "string",
          "name": "",
          "type": "string"
        }
      ],
      "payable": false,
      "stateMutability": "view",
      "type": "function"
    },
    {
      "constant": true,
      "inputs": [],
      "name": "decimals",
      "outputs": [
        {
          "internalType": "uint8",
          "name": "",
          "type": "uint8"
        }
      ],
      "payable": false,
      "stateMutability": "view",
      "type": "function"
    },
    {
      "constant": true,
      "inputs": [],
      "name": "totalSupply",
      "outputs": [
        {
          "internalType": "uint256",
          "name": "",
          "type": "uint256"
        }
      ],
      "payable": false,
      "stateMutability": "view",
      "type": "function"
    },
    {
      "constant": true,
      "inputs": [
        {
          "internalType": "address",
          "name": "_owner",
          "type": "address"
        }
      ],
      "name": "balanceOf",
      "outputs": [
        {
          "internalType": "uint256",
          "name": "balance",
          "type": "uint256"
        }
      ],
      "payable": false,
      "stateMutability": "view",
      "type": "function"
    },
    {
      "constant": false,
      "inputs": [
        {
          "internalType": "address",
          "name": "_to",
          "type": "address"
        },
        {
          "internalType": "uint256",
          "name": "_value",
          "type": "uint256"
        }
      ],
      "name": "transfer",
      "outputs": [
        {
          "internalType": "bool",
          "name": "success",
          "type": "bool"
        }
      ],
      "payable": false,
      "stateMutability": "nonpayable",
      "type": "function"
    },
    {
      "constant": false,
      "inputs": [
        {
          "internalType": "address",
          "name": "_from",
          "type": "address"
        },
        {
          "internalType": "address",
          "name": "_to",
          "type": "address"
        },
        {
          "internalType": "uint256",
          "name": "_value",
          "type": "uint256"
        }
      ],
      "name": "transferFrom",
      "outputs": [
        {
          "internalType": "bool",
          "name": "success",
          "type": "bool"
        }
      ],
      "payable": false,
      "stateMutability": "nonpayable",
      "type": "function"
    },
    {
      "constant": false,
      "inputs": [
        {
          "internalType": "address",
          "name": "_spender",
          "type": "address"
        },
        {
          "internalType": "uint256",
          "name": "_value",
          "type": "uint256"
        }
      ],
      "name": "approve",
      "outputs": [
        {
          "internalType": "bool",
          "name": "success",
          "type": "bool"
        }
      ],
      "payable": false,
      "stateMutability": "nonpayable",
      "type": "function"
    },
    {
      "constant": true,
      "inputs": [
        {
          "internalType": "address",
          "name": "_owner",
          "type": "address"
        },
        {
          "internalType": "address",
          "name": "_spender",
          "type": "address"
        }
      ],
      "name": "allowance",
      "outputs": [
        {
          "internalType": "uint256",
          "name": "remaining",
          "type": "uint256"
        }
      ],
      "payable": false,
      "stateMutability": "view",
      "type": "function"
    }
  ],
  "bytecode": "0x6080604052620f424060015534801561001757600080fd5b50600154600260003373ffffffffffffffffffffffffffffffffffffffff1673ffffffffffffffffffffffffffffffffffffffff16815260200190815260200160002081905550336000806101000a81548173ffffffffffffffffffffffffffffffffffffffff021916908373ffffffffffffffffffffffffffffffffffffffff160217905550610ef8806100ad6000396000f3fe608060405234801561001057600080fd5b50600436106100cf5760003560e01c8063313ce5671161008c578063947a316811610066578063947a3168146103dc57806395d89b411461045f578063a9059cbb146104e2578063dd62ed3e14610548576100cf565b8063313ce5671461033c5780633c4b303d1461036057806370a0823114610384576100cf565b806306fdde03146100d4578063095ea7b31461015757806318160ddd146101bd5780631f772a34146101db57806323b872dd1461025e57806327e235e3146102e4575b600080fd5b6100dc6105c0565b6040518080602001828103825283818151815260200191508051906020019080838360005b8381101561011c578082015181840152602081019050610101565b50505050905090810190601f1680156101495780820380516001836020036101000a031916815260200191505b509250505060405180910390f35b6101a36004803603604081101561016d57600080fd5b81019080803573ffffffffffffffffffffffffffffffffffffffff169060200190929190803590602001909291905050506105fd565b604051808215151515815260200191505060405180910390f35b6101c56106ef565b6040518082815260200191505060405180910390f35b6101e36106f9565b6040518080602001828103825283818151815260200191508051906020019080838360005b83811015610223578082015181840152602081019050610208565b50505050905090810190601f1680156102505780820380516001836020036101000a031916815260200191505b509250505060405180910390f35b6102ca6004803603606081101561027457600080fd5b81019080803573ffffffffffffffffffffffffffffffffffffffff169060200190929190803573ffffffffffffffffffffffffffffffffffffffff16906020019092919080359060200190929190505050610732565b604051808215151515815260200191505060405180910390f35b610326600480360360208110156102fa57600080fd5b81019080803573ffffffffffffffffffffffffffffffffffffffff169060200190929190505050610b11565b6040518082815260200191505060405180910390f35b610344610b29565b604051808260ff1660ff16815260200191505060405180910390f35b610368610b32565b604051808260ff1660ff16815260200191505060405180910390f35b6103c66004803603602081101561039a57600080fd5b81019080803573ffffffffffffffffffffffffffffffffffffffff169060200190929190505050610b37565b6040518082815260200191505060405180910390f35b6103e4610b80565b6040518080602001828103825283818151815260200191508051906020019080838360005b83811015610424578082015181840152602081019050610409565b50505050905090810190601f1680156104515780820380516001836020036101000a031916815260200191505b509250505060405180910390f35b610467610bb9565b6040518080602001828103825283818151815260200191508051906020019080838360005b838110156104a757808201518184015260208101905061048c565b50505050905090810190601f1680156104d45780820380516001836020036101000a031916815260200191505b509250505060405180910390f35b61052e600480360360408110156104f857600080fd5b81019080803573ffffffffffffffffffffffffffffffffffffffff16906020019092919080359060200190929190505050610bf6565b604051808215151515815260200191505060405180910390f35b6105aa6004803603604081101561055e57600080fd5b81019080803573ffffffffffffffffffffffffffffffffffffffff169060200190929190803573ffffffffffffffffffffffffffffffffffffffff169060200190929190505050610dfa565b6040518082815260200191505060405180910390f35b60606040518060400160405280600a81526020017f4368617269746f6b656e00000000000000000000000000000000000000000000815250905090565b600081600360003373ffffffffffffffffffffffffffffffffffffffff1673ffffffffffffffffffffffffffffffffffffffff16815260200190815260200160002060008573ffffffffffffffffffffffffffffffffffffffff1673ffffffffffffffffffffffffffffffffffffffff168152602001908152602001600020819055508273ffffffffffffffffffffffffffffffffffffffff163373ffffffffffffffffffffffffffffffffffffffff167f8c5be1e5ebec7d5bd14f71427d1e84f3dd0314c0f7b2291e5b200ac8c7c3b925846040518082815260200191505060405180910390a36001905092915050565b6000600154905090565b6040518060400160405280600481526020017f434852540000000000000000000000000000000000000000000000000000000081525081565b6000838260008110156107ad576040517f08c379a00000000000000000000000000000000000000000000000000000000081526004018080602001828103825260118152602001807f56616c7565206973206e6567617469766500000000000000000000000000000081525060200191505060405180910390fd5b6107b682610b37565b81111561082b576040517f08c379a000000000000000000000000000000000000000000000000000000000815260040180806020018281038252601f8152602001807f596f757220646f6e2774206861766520656e6f756768206d6f6e6579203a280081525060200191505060405180910390fd5b85858580600360008573ffffffffffffffffffffffffffffffffffffffff1673ffffffffffffffffffffffffffffffffffffffff16815260200190815260200160002060008060009054906101000a900473ffffffffffffffffffffffffffffffffffffffff1673ffffffffffffffffffffffffffffffffffffffff1673ffffffffffffffffffffffffffffffffffffffff168152602001908152602001600020541015610924576040517f08c379a0000000000000000000000000000000000000000000000000000000008152600401808060200182810382526042815260200180610e826042913960600191505060405180910390fd5b600061092f89610b37565b6109388b610b37565b01905087600260008c73ffffffffffffffffffffffffffffffffffffffff1673ffffffffffffffffffffffffffffffffffffffff1681526020019081526020016000206000828254039250508190555087600260008b73ffffffffffffffffffffffffffffffffffffffff1673ffffffffffffffffffffffffffffffffffffffff1681526020019081526020016000206000828254019250508190555087600360008c73ffffffffffffffffffffffffffffffffffffffff1673ffffffffffffffffffffffffffffffffffffffff16815260200190815260200160002060008060009054906101000a900473ffffffffffffffffffffffffffffffffffffffff1673ffffffffffffffffffffffffffffffffffffffff1673ffffffffffffffffffffffffffffffffffffffff168152602001908152602001600020600082825403925050819055508873ffffffffffffffffffffffffffffffffffffffff168a73ffffffffffffffffffffffffffffffffffffffff167fddf252ad1be2c89b69c2b068fc378daa952ba7f163c4a11628f55a4df523b3ef8a6040518082815260200191505060405180910390a3610aee89610b37565b610af78b610b37565b018114610b0057fe5b600196505050505050509392505050565b60026020528060005260406000206000915090505481565b60006012905090565b601281565b6000600260008373ffffffffffffffffffffffffffffffffffffffff1673ffffffffffffffffffffffffffffffffffffffff168152602001908152602001600020549050919050565b6040518060400160405280600a81526020017f4368617269746f6b656e0000000000000000000000000000000000000000000081525081565b60606040518060400160405280600a81526020017f4368617269746f6b656e00000000000000000000000000000000000000000000815250905090565b600033826000811015610c71576040517f08c379a00000000000000000000000000000000000000000000000000000000081526004018080602001828103825260118152602001807f56616c7565206973206e6567617469766500000000000000000000000000000081525060200191505060405180910390fd5b610c7a82610b37565b811115610cef576040517f08c379a000000000000000000000000000000000000000000000000000000000815260040180806020018281038252601f8152602001807f596f757220646f6e2774206861766520656e6f756768206d6f6e6579203a280081525060200191505060405180910390fd5b83600260008773ffffffffffffffffffffffffffffffffffffffff1673ffffffffffffffffffffffffffffffffffffffff1681526020019081526020016000206000828254019250508190555083600260003373ffffffffffffffffffffffffffffffffffffffff1673ffffffffffffffffffffffffffffffffffffffff168152602001908152602001600020600082825403925050819055508473ffffffffffffffffffffffffffffffffffffffff163373ffffffffffffffffffffffffffffffffffffffff167fddf252ad1be2c89b69c2b068fc378daa952ba7f163c4a11628f55a4df523b3ef866040518082815260200191505060405180910390a360019250505092915050565b6000600360008473ffffffffffffffffffffffffffffffffffffffff1673ffffffffffffffffffffffffffffffffffffffff16815260200190815260200160002060008373ffffffffffffffffffffffffffffffffffffffff1673ffffffffffffffffffffffffffffffffffffffff1681526020019081526020016000205490509291505056fe596f7520646f6e27742068617665207065726d697373696f6e20746f2075736520746869732066756e6374696f6e206f722076616c756520697320746f6f20626967a265627a7a72315820360881c122645187571bc70e6d2a4015cba78fc7b82631ca3d92dbd31b43de9664736f6c63430005100032",
  "source": "pragma solidity >=0.4.22 <0.9.0;\r\n\r\ncontract TokenERC20 {\r\n    address token;\r\n\r\n    string public constant token_name = \"Charitoken\";\r\n\r\n    string public constant token_symbol = \"CHRT\";\r\n\r\n\r\n    uint8 public constant token_decimals = 18;\r\n\r\n    // Общее количество токенов\r\n    uint256 private token_totalSupply = 1000000;\r\n\r\n    // Маппинг балансов адресов\r\n    mapping (address => uint) public balances;\r\n\r\n    /* Первый ключ — адрес на снятие с которого предоставляется разрешение. \r\n    Второй ключ — пользователь, которому предоставляется разрешение. */\r\n    mapping (address => mapping (address => uint)) allowed;\r\n\r\n    // Проверям чтобы у пользователя хватало денег и значение _value не было отрицательным\r\n    modifier notEnoughMoney(address _from, uint _value){\r\n        require(\r\n            _value >= 0,\r\n            \"Value is negative\"\r\n        );\r\n\r\n        require(\r\n            _value <= balanceOf(_from),\r\n            \"Your don't have enough money :(\"\r\n        );\r\n        _;\r\n    }\r\n\r\n    //Проверяем разрешение на перевод средств у кошельков\r\n    modifier permission(address _from, address _to, uint256 _value) {\r\n        require(\r\n            allowed[_from][token] >= _value,\r\n            \"You don't have permission to use this function or value is too big\"\r\n        );\r\n        _;\r\n    }\r\n\r\n\r\n    constructor() public {\r\n        balances[msg.sender] = token_totalSupply;\r\n        token = msg.sender;\r\n    }\r\n\r\n    // OPTIONAL - This method can be used to improve usability, but interfaces and other contracts MUST NOT expect these values to be present.\r\n    function name() public view returns (string memory) {\r\n        return token_name;\r\n    }\r\n\r\n    // OPTIONAL - This method can be used to improve usability, but interfaces and other contracts MUST NOT expect these values to be present.\r\n    function symbol() public view returns (string memory) {\r\n        return token_name;\r\n    }\r\n\r\n    // OPTIONAL - This method can be used to improve usability, but interfaces and other contracts MUST NOT expect these values to be present.\r\n    function decimals() public view returns (uint8) {\r\n        return token_decimals;\r\n    }\r\n\r\n    // Returns the total token supply.\r\n    function totalSupply() public view returns (uint256) {\r\n        return token_totalSupply;\r\n    }\r\n\r\n    // Returns the account balance of another account with address _owner.\r\n    function balanceOf(address _owner) public view returns (uint256 balance) {\r\n        return balances[_owner];\r\n    }\r\n\r\n    // msg.sender отправляет _value токенов на адрес _to\r\n    function transfer(address _to, uint256 _value) public notEnoughMoney(msg.sender, _value) returns (bool success) {\r\n        balances[_to] += _value;\r\n        balances[msg.sender] -= _value;\r\n        emit Transfer(msg.sender, _to, _value);\r\n        return true;\r\n    }\r\n\r\n\r\n    function transferFrom(address _from, address _to, uint256 _value) public notEnoughMoney(_from, _value) permission(_from, _to, _value) returns (bool success) {\r\n        uint previousBalances = balanceOf(_from) + balanceOf(_to);\r\n        balances[_from] -= _value;\r\n        balances[_to] += _value;\r\n        allowed[_from][token] -= _value;\r\n        emit Transfer(_from, _to, _value);\r\n        assert(previousBalances == balanceOf(_from) + balanceOf(_to));\r\n        return true;\r\n    }\r\n\r\n    // Разрешает пользователю _spender снимать с вашего счета (точнее со счета вызвавшего функцию пользователя) средства не более чем _value.\r\n    function approve(address _spender, uint256 _value) public returns (bool success) {\r\n        allowed[msg.sender][_spender] = _value;\r\n        emit Approval(msg.sender, _spender, _value);\r\n        return true;\r\n    }\r\n\r\n    // Возвращает сколько монет со своего счета разрешил снимать пользователь _owner пользователю _spender.\r\n    function allowance(address _owner, address _spender) public view returns (uint256 remaining) {\r\n        return allowed[_owner][_spender];\r\n    }\r\n\r\n    event Transfer(address indexed _from, address indexed _to, uint _value);\r\n\r\n    event Approval(address indexed _owner, address indexed _spender, uint _value);\r\n}",
  "sourcePath": "C:\\Users\\Denis\\BlockChain3\\contracts\\Token.sol",
  "compiler": {
    "name": "solc",
    "version": "0.5.16+commit.9c3226ce.Emscripten.clang"
  },
  "schemaVersion": "3.4.1",
  "updatedAt": "2021-11-18T13:44:37.888Z",
  "devdoc": {
    "methods": {}
  },
  "userdoc": {
    "methods": {}
  }
}